{
  "contractName": "MarketPlace",
  "abi": [
    {
      "inputs": [],
      "stateMutability": "nonpayable",
      "type": "constructor"
    },
    {
      "inputs": [],
      "name": "name",
      "outputs": [
        {
          "internalType": "string",
          "name": "",
          "type": "string"
        }
      ],
      "stateMutability": "view",
      "type": "function",
      "constant": true
    },
    {
      "inputs": [],
      "name": "productCount",
      "outputs": [
        {
          "internalType": "uint256",
          "name": "",
          "type": "uint256"
        }
      ],
      "stateMutability": "view",
      "type": "function",
      "constant": true
    },
    {
      "inputs": [
        {
          "internalType": "uint256",
          "name": "",
          "type": "uint256"
        }
      ],
      "name": "products",
      "outputs": [
        {
          "internalType": "uint256",
          "name": "id",
          "type": "uint256"
        },
        {
          "internalType": "string",
          "name": "name",
          "type": "string"
        },
        {
          "internalType": "uint256",
          "name": "price",
          "type": "uint256"
        },
        {
          "internalType": "address",
          "name": "owner",
          "type": "address"
        },
        {
          "internalType": "bool",
          "name": "isAvailable",
          "type": "bool"
        }
      ],
      "stateMutability": "view",
      "type": "function",
      "constant": true
    },
    {
      "inputs": [
        {
          "internalType": "string",
          "name": "_name",
          "type": "string"
        },
        {
          "internalType": "uint256",
          "name": "_price",
          "type": "uint256"
        }
      ],
      "name": "createProduct",
      "outputs": [],
      "stateMutability": "nonpayable",
      "type": "function"
    }
  ],
  "bytecode": "0x6080604052600060025534801561001557600080fd5b506040805180820190915260148082527f457468657265756d204d61726b6574706c616365000000000000000000000000602090920191825261005a91600091610060565b5061014d565b82805461006c906100f9565b90600052602060002090601f01602090048101928261008e57600085556100d4565b82601f106100a757805160ff19168380011785556100d4565b828001600101855582156100d4579182015b828111156100d45782518255916020019190600101906100b9565b506100e09291506100e4565b5090565b5b808211156100e057600081556001016100e5565b60028104600182168061010d57607f821691505b60208210811415610147577f4e487b7100000000000000000000000000000000000000000000000000000000600052602260045260246000fd5b50919050565b6106448061015c6000396000f3fe608060405234801561001057600080fd5b5060043610610068577c0100000000000000000000000000000000000000000000000000000000600035046306fdde03811461006d5780637acc0b201461008b578063e0f6ef87146100af578063e9300c6c146100c6575b600080fd5b6100756100db565b6040516100829190610413565b60405180910390f35b61009e61009936600461042d565b610169565b604051610082959493929190610446565b6100b860025481565b604051908152602001610082565b6100d96100d43660046104c3565b61024c565b005b600080546100e890610578565b80601f016020809104026020016040519081016040528092919081815260200182805461011490610578565b80156101615780601f1061013657610100808354040283529160200191610161565b820191906000526020600020905b81548152906001019060200180831161014457829003601f168201915b505050505081565b60016020819052600091825260409091208054918101805461018a90610578565b80601f01602080910402602001604051908101604052809291908181526020018280546101b690610578565b80156102035780601f106101d857610100808354040283529160200191610203565b820191906000526020600020905b8154815290600101906020018083116101e657829003601f168201915b50505050600283015460039093015491929173ffffffffffffffffffffffffffffffffffffffff8116915074010000000000000000000000000000000000000000900460ff1685565b6002805490600061025c836105cc565b90915550506040805160a08101825260025480825260208083018681528385018690523360608501526001608085018190526000938452808352949092208351815591518051939492936102b793850192919091019061032d565b50604082015160028201556060820151600390910180546080909301511515740100000000000000000000000000000000000000000274ffffffffffffffffffffffffffffffffffffffffff1990931673ffffffffffffffffffffffffffffffffffffffff909216919091179190911790555050565b82805461033990610578565b90600052602060002090601f01602090048101928261035b57600085556103a1565b82601f1061037457805160ff19168380011785556103a1565b828001600101855582156103a1579182015b828111156103a1578251825591602001919060010190610386565b506103ad9291506103b1565b5090565b5b808211156103ad57600081556001016103b2565b6000815180845260005b818110156103ec576020818501810151868301820152016103d0565b818111156103fe576000602083870101525b50601f01601f19169290920160200192915050565b60208152600061042660208301846103c6565b9392505050565b60006020828403121561043f57600080fd5b5035919050565b85815260a06020820152600061045f60a08301876103c6565b60408301959095525073ffffffffffffffffffffffffffffffffffffffff929092166060830152151560809091015292915050565b7f4e487b7100000000000000000000000000000000000000000000000000000000600052604160045260246000fd5b600080604083850312156104d657600080fd5b823567ffffffffffffffff808211156104ee57600080fd5b818501915085601f83011261050257600080fd5b81358181111561051457610514610494565b604051601f8201601f19908116603f0116810190838211818310171561053c5761053c610494565b8160405282815288602084870101111561055557600080fd5b826020860160208301376000602093820184015298969091013596505050505050565b60028104600182168061058c57607f821691505b602082108114156105c6577f4e487b7100000000000000000000000000000000000000000000000000000000600052602260045260246000fd5b50919050565b6000600019821415610607577f4e487b7100000000000000000000000000000000000000000000000000000000600052601160045260246000fd5b506001019056fea264697066735822122010d9bb990b3236c8983d050c9cd451f4c43052ae9d3eb162c39c3f734a74dc0364736f6c634300080b0033",
  "immutableReferences": {},
  "source": "// SPDX-License-Identifier: MIT\r\npragma solidity >=0.4.22 <0.9.0;\r\n\r\nimport \"../node_modules/@openzeppelin/contracts/token/ERC20/ERC20.sol\";\r\n\r\ncontract MarketPlace {\r\n    string public name;\r\n\r\n    mapping(uint256 => Product) public products;\r\n    uint256 public productCount = 0;\r\n\r\n    struct Product {\r\n        uint256 id;\r\n        string name;\r\n        uint256 price;\r\n        address owner;\r\n        bool isAvailable;\r\n    }\r\n\r\n    /*event ProductCreated(\r\n        uint256 id,\r\n        string name,\r\n        uint256 price,\r\n        address owner,\r\n        bool isAvailable\r\n    );*/\r\n\r\n    constructor() {\r\n        name = \"Ethereum Marketplace\";\r\n    }\r\n\r\n    function createProduct(string memory _name, uint256 _price) public {\r\n        productCount++;\r\n        products[productCount] = Product(\r\n            productCount,\r\n            _name,\r\n            _price,\r\n            msg.sender,\r\n            true\r\n        );\r\n\r\n        //emit ProductCreated(productCount, _name, _price, msg.sender, true);\r\n    }\r\n}\r\n",
  "sourcePath": "C:\\Users\\Andr\\Desktop\\Projetos\\Personal\\blockchain-network\\contracts\\MarketPlace.sol",
  "compiler": {
    "name": "solc",
    "version": "0.8.11+commit.d7f03943.Emscripten.clang"
  },
  "schemaVersion": "3.4.4",
  "updatedAt": "2022-04-06T14:53:59.132Z",
  "networkType": "ethereum",
  "devdoc": {
    "kind": "dev",
    "methods": {},
    "version": 1
  },
  "userdoc": {
    "kind": "user",
    "methods": {},
    "version": 1
  }
}